{"abi":[{"type":"function","name":"DIDs","inputs":[{"name":"","type":"string","internalType":"string"}],"outputs":[{"name":"exist","type":"bool","internalType":"bool"},{"name":"pk","type":"address","internalType":"address"}],"stateMutability":"view"},{"type":"function","name":"checkRevocation","inputs":[{"name":"issuer_did","type":"string","internalType":"string"},{"name":"cred_id","type":"string","internalType":"string"}],"outputs":[{"name":"","type":"bool","internalType":"bool"}],"stateMutability":"view"},{"type":"function","name":"getDID","inputs":[{"name":"did","type":"string","internalType":"string"}],"outputs":[{"name":"","type":"tuple","internalType":"struct VDR.DIDDoc","components":[{"name":"did","type":"string","internalType":"string"},{"name":"pk","type":"address","internalType":"address"},{"name":"methodType","type":"string","internalType":"string"},{"name":"context","type":"string[]","internalType":"string[]"}]}],"stateMutability":"view"},{"type":"function","name":"getIssuer","inputs":[{"name":"did","type":"string","internalType":"string"}],"outputs":[{"name":"","type":"tuple","internalType":"struct VDR.validIssuer","components":[{"name":"exist","type":"bool","internalType":"bool"},{"name":"methodType","type":"string","internalType":"string"},{"name":"pk","type":"string","internalType":"string"},{"name":"revocationList","type":"string[]","internalType":"string[]"}]}],"stateMutability":"view"},{"type":"function","name":"issuerData","inputs":[{"name":"","type":"string","internalType":"string"}],"outputs":[{"name":"exist","type":"bool","internalType":"bool"},{"name":"methodType","type":"string","internalType":"string"},{"name":"pk","type":"string","internalType":"string"}],"stateMutability":"view"},{"type":"function","name":"registerDID","inputs":[{"name":"did","type":"string","internalType":"string"}],"outputs":[],"stateMutability":"nonpayable"},{"type":"function","name":"registerIssuer","inputs":[{"name":"did","type":"string","internalType":"string"},{"name":"_methodType","type":"string","internalType":"string"},{"name":"pk","type":"string","internalType":"string"}],"outputs":[],"stateMutability":"nonpayable"},{"type":"function","name":"removeIssuer","inputs":[{"name":"did","type":"string","internalType":"string"}],"outputs":[],"stateMutability":"nonpayable"},{"type":"function","name":"revoke","inputs":[{"name":"did","type":"string","internalType":"string"},{"name":"cred_id","type":"string","internalType":"string"}],"outputs":[],"stateMutability":"nonpayable"}],"bytecode":{"object":"0x601c60c09081527f68747470733a2f2f7777772e77332e6f72672f6e732f6469642f76310000000060e05260809081526101a0604052606b61010081815260a091620019c96101203990526200005a906000906002620000b3565b5060408051808201909152601a81527f45643235353139566572696669636174696f6e4b65793230323000000000000060208201526001906200009e90826200022f565b50348015620000ac57600080fd5b50620002fb565b828054828255906000526020600020908101928215620000fe579160200282015b82811115620000fe5782518290620000ed90826200022f565b5091602001919060010190620000d4565b506200010c92915062000110565b5090565b808211156200010c57600062000127828262000131565b5060010162000110565b5080546200013f90620001a0565b6000825580601f1062000150575050565b601f01602090049060005260206000209081019062000170919062000173565b50565b5b808211156200010c576000815560010162000174565b634e487b7160e01b600052604160045260246000fd5b600181811c90821680620001b557607f821691505b602082108103620001d657634e487b7160e01b600052602260045260246000fd5b50919050565b601f8211156200022a57600081815260208120601f850160051c81016020861015620002055750805b601f850160051c820191505b81811015620002265782815560010162000211565b5050505b505050565b81516001600160401b038111156200024b576200024b6200018a565b62000263816200025c8454620001a0565b84620001dc565b602080601f8311600181146200029b5760008415620002825750858301515b600019600386901b1c1916600185901b17855562000226565b600085815260208120601f198616915b82811015620002cc57888601518255948401946001909101908401620002ab565b5085821015620002eb5787850151600019600388901b60f8161c191681555b5050505050600190811b01905550565b6116be806200030b6000396000f3fe608060405234801561001057600080fd5b50600436106100935760003560e01c806376baabff1161006657806376baabff1461014557806380793ab8146101585780638096373e14610178578063a0a4f5921461018b578063e0783898146101ad57600080fd5b806310b40f85146100985780632128e1c9146100ad578063317305f41461010f578063570810e214610132575b600080fd5b6100ab6100a6366004610f58565b6101cd565b005b6100eb6100bb366004610fda565b805160208183018101805160028252928201919093012091525460ff81169061010090046001600160a01b031682565b6040805192151583526001600160a01b039091166020830152015b60405180910390f35b61012261011d366004610f58565b6102b0565b6040519015158152602001610106565b6100ab610140366004610fda565b6103de565b6100ab61015336600461108b565b6104c3565b61016b61016636600461108b565b6105af565b604051610106919061116f565b6100ab6101863660046111dc565b610858565b61019e610199366004610fda565b610a52565b60405161010693929190611276565b6101c06101bb36600461108b565b610b94565b60405161010691906112ad565b600384846040516101df9291906112f9565b9081526040519081900360200190205460ff166102175760405162461bcd60e51b815260040161020e90611309565b60405180910390fd5b600284846040516102299291906112f9565b9081526040516020918190039190910190205461010090046001600160a01b031633146102685760405162461bcd60e51b815260040161020e90611340565b6003848460405161027a9291906112f9565b9081526040516020918190038201902060030180546001810182556000918252919020016102a98284836113f5565b5050505050565b6000600385856040516102c49291906112f9565b9081526040519081900360200190205460ff166102f35760405162461bcd60e51b815260040161020e90611309565b60005b600386866040516103089291906112f9565b908152604051908190036020019020600301548110156103d05783836040516020016103359291906114b5565b604051602081830303815290604052805190602001206003878760405161035d9291906112f9565b9081526020016040518091039020600301828154811061037f5761037f6114e4565b9060005260206000200160405160200161039991906114fa565b60405160208183030381529060405280519060200120036103be5760019150506103d6565b806103c881611585565b9150506102f6565b50600090505b949350505050565b6002816040516103ee91906115ac565b9081526040519081900360200190205460ff161561044e5760405162461bcd60e51b815260206004820152601b60248201527f5468652044494420697320616c72656164792063726561746564210000000000604482015260640161020e565b60408051808201825260018152336020820152905181906002906104739085906115ac565b9081526040519081900360209081019091208251815493909201516001600160a01b031661010002610100600160a81b0319921515929092166001600160a81b0319909316929092171790555050565b600382826040516104d59291906112f9565b9081526040519081900360200190205460ff166105045760405162461bcd60e51b815260040161020e90611309565b600282826040516105169291906112f9565b9081526040516020918190039190910190205461010090046001600160a01b031633146105555760405162461bcd60e51b815260040161020e90611340565b600382826040516105679291906112f9565b908152604051908190036020019020805460ff19168155600061058d6001830182610e2c565b61059b600283016000610e2c565b6105a9600383016000610e69565b50505050565b6105dc60405180608001604052806000151581526020016060815260200160608152602001606081525090565b600383836040516105ee9291906112f9565b9081526040519081900360200190205460ff1661061d5760405162461bcd60e51b815260040161020e90611309565b6003838360405161062f9291906112f9565b90815260408051918290036020908101832060808401909252815460ff1615158352600182018054918401916106649061136c565b80601f01602080910402602001604051908101604052809291908181526020018280546106909061136c565b80156106dd5780601f106106b2576101008083540402835291602001916106dd565b820191906000526020600020905b8154815290600101906020018083116106c057829003601f168201915b505050505081526020016002820180546106f69061136c565b80601f01602080910402602001604051908101604052809291908181526020018280546107229061136c565b801561076f5780601f106107445761010080835404028352916020019161076f565b820191906000526020600020905b81548152906001019060200180831161075257829003601f168201915b5050505050815260200160038201805480602002602001604051908101604052809291908181526020016000905b828210156108495783829060005260206000200180546107bc9061136c565b80601f01602080910402602001604051908101604052809291908181526020018280546107e89061136c565b80156108355780601f1061080a57610100808354040283529160200191610835565b820191906000526020600020905b81548152906001019060200180831161081857829003601f168201915b50505050508152602001906001019061079d565b50505091525090949350505050565b6002868660405161086a9291906112f9565b9081526040519081900360200190205460ff166108c35760405162461bcd60e51b81526020600482015260176024820152765468657265206973206e6f20737563682061204449442160481b604482015260640161020e565b600286866040516108d59291906112f9565b9081526040516020918190039190910190205461010090046001600160a01b031633146109145760405162461bcd60e51b815260040161020e90611340565b6000604051806080016040528060011515815260200186868080601f016020809104026020016040519081016040528093929190818152602001838380828437600092019190915250505090825250604080516020601f870181900481028201810190925285815291810191908690869081908401838280828437600092018290525093855250506040805183815260208181019092529301929190506109cb565b60608152602001906001900390816109b65790505b50815250905080600388886040516109e49291906112f9565b908152604051602091819003820190208251815460ff1916901515178155908201516001820190610a1590826115c8565b5060408201516002820190610a2a90826115c8565b5060608201518051610a46916003840191602090910190610e87565b50505050505050505050565b80516020818301810180516003825292820191909301209152805460018201805460ff9092169291610a839061136c565b80601f0160208091040260200160405190810160405280929190818152602001828054610aaf9061136c565b8015610afc5780601f10610ad157610100808354040283529160200191610afc565b820191906000526020600020905b815481529060010190602001808311610adf57829003601f168201915b505050505090806002018054610b119061136c565b80601f0160208091040260200160405190810160405280929190818152602001828054610b3d9061136c565b8015610b8a5780601f10610b5f57610100808354040283529160200191610b8a565b820191906000526020600020905b815481529060010190602001808311610b6d57829003601f168201915b5050505050905083565b610bc860405180608001604052806060815260200160006001600160a01b0316815260200160608152602001606081525090565b60028383604051610bda9291906112f9565b9081526040519081900360200190205460ff16610c335760405162461bcd60e51b81526020600482015260176024820152765468657265206973206e6f20737563682061204449442160481b604482015260640161020e565b6040805160a06020601f86018190040282018101909252608081018481526000928291908790879081908501838280828437600092019190915250505090825250604051602090910190600290610c8d90889088906112f9565b908152602001604051809103902060000160019054906101000a90046001600160a01b03166001600160a01b0316815260200160018054610ccd9061136c565b80601f0160208091040260200160405190810160405280929190818152602001828054610cf99061136c565b8015610d465780601f10610d1b57610100808354040283529160200191610d46565b820191906000526020600020905b815481529060010190602001808311610d2957829003601f168201915b505050505081526020016000805480602002602001604051908101604052809291908181526020016000905b82821015610e1e578382906000526020600020018054610d919061136c565b80601f0160208091040260200160405190810160405280929190818152602001828054610dbd9061136c565b8015610e0a5780601f10610ddf57610100808354040283529160200191610e0a565b820191906000526020600020905b815481529060010190602001808311610ded57829003601f168201915b505050505081526020019060010190610d72565b505050915250949350505050565b508054610e389061136c565b6000825580601f10610e48575050565b601f016020900490600052602060002090810190610e669190610edd565b50565b5080546000825590600052602060002090810190610e669190610ef2565b828054828255906000526020600020908101928215610ecd579160200282015b82811115610ecd5782518290610ebd90826115c8565b5091602001919060010190610ea7565b50610ed9929150610ef2565b5090565b5b80821115610ed95760008155600101610ede565b80821115610ed9576000610f068282610e2c565b50600101610ef2565b60008083601f840112610f2157600080fd5b50813567ffffffffffffffff811115610f3957600080fd5b602083019150836020828501011115610f5157600080fd5b9250929050565b60008060008060408587031215610f6e57600080fd5b843567ffffffffffffffff80821115610f8657600080fd5b610f9288838901610f0f565b90965094506020870135915080821115610fab57600080fd5b50610fb887828801610f0f565b95989497509550505050565b634e487b7160e01b600052604160045260246000fd5b600060208284031215610fec57600080fd5b813567ffffffffffffffff8082111561100457600080fd5b818401915084601f83011261101857600080fd5b81358181111561102a5761102a610fc4565b604051601f8201601f19908116603f0116810190838211818310171561105257611052610fc4565b8160405282815287602084870101111561106b57600080fd5b826020860160208301376000928101602001929092525095945050505050565b6000806020838503121561109e57600080fd5b823567ffffffffffffffff8111156110b557600080fd5b6110c185828601610f0f565b90969095509350505050565b60005b838110156110e85781810151838201526020016110d0565b50506000910152565b600081518084526111098160208601602086016110cd565b601f01601f19169290920160200192915050565b6000815180845260208085019450848260051b860182860160005b858110156111625783830389526111508383516110f1565b98850198925090840190600101611138565b5090979650505050505050565b60208152815115156020820152600060208301516080604084015261119760a08401826110f1565b90506040840151601f19808584030160608601526111b583836110f1565b92506060860151915080858403016080860152506111d3828261111d565b95945050505050565b600080600080600080606087890312156111f557600080fd5b863567ffffffffffffffff8082111561120d57600080fd5b6112198a838b01610f0f565b9098509650602089013591508082111561123257600080fd5b61123e8a838b01610f0f565b9096509450604089013591508082111561125757600080fd5b5061126489828a01610f0f565b979a9699509497509295939492505050565b831515815260606020820152600061129160608301856110f1565b82810360408401526112a381856110f1565b9695505050505050565b6020815260008251608060208401526112c960a08401826110f1565b905060018060a01b0360208501511660408401526040840151601f19808584030160608601526111b583836110f1565b8183823760009101908152919050565b6020808252601a908201527f5468657265206973206e6f207375636820612069737375657221000000000000604082015260600190565b602080825260129082015271596f752068617665206e6f2072696768742160701b604082015260600190565b600181811c9082168061138057607f821691505b6020821081036113a057634e487b7160e01b600052602260045260246000fd5b50919050565b601f8211156113f057600081815260208120601f850160051c810160208610156113cd5750805b601f850160051c820191505b818110156113ec578281556001016113d9565b5050505b505050565b67ffffffffffffffff83111561140d5761140d610fc4565b6114218361141b835461136c565b836113a6565b6000601f841160018114611455576000851561143d5750838201355b600019600387901b1c1916600186901b1783556102a9565b600083815260209020601f19861690835b828110156114865786850135825560209485019460019092019101611466565b50868210156114a35760001960f88860031b161c19848701351681555b505060018560011b0183555050505050565b60208152816020820152818360408301376000818301604090810191909152601f909201601f19160101919050565b634e487b7160e01b600052603260045260246000fd5b600060208083526000845461150e8161136c565b8084870152604060018084166000811461152f576001811461154957611577565b60ff1985168984015283151560051b890183019550611577565b896000528660002060005b8581101561156f5781548b8201860152908301908801611554565b8a0184019650505b509398975050505050505050565b6000600182016115a557634e487b7160e01b600052601160045260246000fd5b5060010190565b600082516115be8184602087016110cd565b9190910192915050565b815167ffffffffffffffff8111156115e2576115e2610fc4565b6115f6816115f0845461136c565b846113a6565b602080601f83116001811461162b57600084156116135750858301515b600019600386901b1c1916600185901b1785556113ec565b600085815260208120601f198616915b8281101561165a5788860151825594840194600190910190840161163b565b50858210156116785787850151600019600388901b60f8161c191681555b5050505050600190811b0190555056fea2646970667358221220f33bc3513280985d721760c83d653700e1f66ae58ae47d1666ffe3cdef6237a464736f6c6343000813003368747470733a2f2f6964656e746974792e666f756e646174696f6e2f4563647361536563703235366b315265636f766572795369676e6174757265323032302f6c64732d65636473612d736563703235366b312d7265636f76657279323032302d302e302e6a736f6e6c64","linkReferences":{}},"methodIdentifiers":{"DIDs(string)":"2128e1c9","checkRevocation(string,string)":"317305f4","getDID(string)":"e0783898","getIssuer(string)":"80793ab8","issuerData(string)":"a0a4f592","registerDID(string)":"570810e2","registerIssuer(string,string,string)":"8096373e","removeIssuer(string)":"76baabff","revoke(string,string)":"10b40f85"},"id":20}